{
  "contractName": "Boxes",
  "abi": [
    {
      "anonymous": false,
      "inputs": [
        {
          "indexed": true,
          "internalType": "address",
          "name": "owner",
          "type": "address"
        },
        {
          "indexed": true,
          "internalType": "address",
          "name": "approved",
          "type": "address"
        },
        {
          "indexed": true,
          "internalType": "uint256",
          "name": "tokenId",
          "type": "uint256"
        }
      ],
      "name": "Approval",
      "type": "event"
    },
    {
      "anonymous": false,
      "inputs": [
        {
          "indexed": true,
          "internalType": "address",
          "name": "owner",
          "type": "address"
        },
        {
          "indexed": true,
          "internalType": "address",
          "name": "operator",
          "type": "address"
        },
        {
          "indexed": false,
          "internalType": "bool",
          "name": "approved",
          "type": "bool"
        }
      ],
      "name": "ApprovalForAll",
      "type": "event"
    },
    {
      "anonymous": false,
      "inputs": [
        {
          "indexed": false,
          "internalType": "uint8",
          "name": "version",
          "type": "uint8"
        }
      ],
      "name": "Initialized",
      "type": "event"
    },
    {
      "anonymous": false,
      "inputs": [
        {
          "components": [
            {
              "internalType": "uint256",
              "name": "id",
              "type": "uint256"
            },
            {
              "internalType": "string",
              "name": "tokenURI",
              "type": "string"
            }
          ],
          "indexed": true,
          "internalType": "struct Boxes.Box",
          "name": "box",
          "type": "tuple"
        },
        {
          "indexed": true,
          "internalType": "address",
          "name": "minter",
          "type": "address"
        }
      ],
      "name": "NewBox",
      "type": "event"
    },
    {
      "anonymous": false,
      "inputs": [
        {
          "indexed": true,
          "internalType": "address",
          "name": "previousOwner",
          "type": "address"
        },
        {
          "indexed": true,
          "internalType": "address",
          "name": "newOwner",
          "type": "address"
        }
      ],
      "name": "OwnershipTransferred",
      "type": "event"
    },
    {
      "anonymous": false,
      "inputs": [
        {
          "indexed": true,
          "internalType": "address",
          "name": "from",
          "type": "address"
        },
        {
          "indexed": true,
          "internalType": "address",
          "name": "to",
          "type": "address"
        },
        {
          "indexed": true,
          "internalType": "uint256",
          "name": "tokenId",
          "type": "uint256"
        }
      ],
      "name": "Transfer",
      "type": "event"
    },
    {
      "inputs": [
        {
          "internalType": "address",
          "name": "to",
          "type": "address"
        },
        {
          "internalType": "uint256",
          "name": "tokenId",
          "type": "uint256"
        }
      ],
      "name": "approve",
      "outputs": [],
      "stateMutability": "nonpayable",
      "type": "function"
    },
    {
      "inputs": [
        {
          "internalType": "address",
          "name": "owner",
          "type": "address"
        }
      ],
      "name": "balanceOf",
      "outputs": [
        {
          "internalType": "uint256",
          "name": "",
          "type": "uint256"
        }
      ],
      "stateMutability": "view",
      "type": "function",
      "constant": true
    },
    {
      "inputs": [
        {
          "internalType": "uint256",
          "name": "tokenId",
          "type": "uint256"
        }
      ],
      "name": "getApproved",
      "outputs": [
        {
          "internalType": "address",
          "name": "",
          "type": "address"
        }
      ],
      "stateMutability": "view",
      "type": "function",
      "constant": true
    },
    {
      "inputs": [
        {
          "internalType": "address",
          "name": "owner",
          "type": "address"
        },
        {
          "internalType": "address",
          "name": "operator",
          "type": "address"
        }
      ],
      "name": "isApprovedForAll",
      "outputs": [
        {
          "internalType": "bool",
          "name": "",
          "type": "bool"
        }
      ],
      "stateMutability": "view",
      "type": "function",
      "constant": true
    },
    {
      "inputs": [],
      "name": "mintPrice",
      "outputs": [
        {
          "internalType": "uint256",
          "name": "",
          "type": "uint256"
        }
      ],
      "stateMutability": "view",
      "type": "function",
      "constant": true
    },
    {
      "inputs": [],
      "name": "name",
      "outputs": [
        {
          "internalType": "string",
          "name": "",
          "type": "string"
        }
      ],
      "stateMutability": "view",
      "type": "function",
      "constant": true
    },
    {
      "inputs": [],
      "name": "owner",
      "outputs": [
        {
          "internalType": "address",
          "name": "",
          "type": "address"
        }
      ],
      "stateMutability": "view",
      "type": "function",
      "constant": true
    },
    {
      "inputs": [
        {
          "internalType": "uint256",
          "name": "tokenId",
          "type": "uint256"
        }
      ],
      "name": "ownerOf",
      "outputs": [
        {
          "internalType": "address",
          "name": "",
          "type": "address"
        }
      ],
      "stateMutability": "view",
      "type": "function",
      "constant": true
    },
    {
      "inputs": [],
      "name": "renounceOwnership",
      "outputs": [],
      "stateMutability": "nonpayable",
      "type": "function"
    },
    {
      "inputs": [
        {
          "internalType": "address",
          "name": "from",
          "type": "address"
        },
        {
          "internalType": "address",
          "name": "to",
          "type": "address"
        },
        {
          "internalType": "uint256",
          "name": "tokenId",
          "type": "uint256"
        }
      ],
      "name": "safeTransferFrom",
      "outputs": [],
      "stateMutability": "nonpayable",
      "type": "function"
    },
    {
      "inputs": [
        {
          "internalType": "address",
          "name": "from",
          "type": "address"
        },
        {
          "internalType": "address",
          "name": "to",
          "type": "address"
        },
        {
          "internalType": "uint256",
          "name": "tokenId",
          "type": "uint256"
        },
        {
          "internalType": "bytes",
          "name": "data",
          "type": "bytes"
        }
      ],
      "name": "safeTransferFrom",
      "outputs": [],
      "stateMutability": "nonpayable",
      "type": "function"
    },
    {
      "inputs": [
        {
          "internalType": "address",
          "name": "operator",
          "type": "address"
        },
        {
          "internalType": "bool",
          "name": "approved",
          "type": "bool"
        }
      ],
      "name": "setApprovalForAll",
      "outputs": [],
      "stateMutability": "nonpayable",
      "type": "function"
    },
    {
      "inputs": [],
      "name": "symbol",
      "outputs": [
        {
          "internalType": "string",
          "name": "",
          "type": "string"
        }
      ],
      "stateMutability": "view",
      "type": "function",
      "constant": true
    },
    {
      "inputs": [
        {
          "internalType": "uint256",
          "name": "index",
          "type": "uint256"
        }
      ],
      "name": "tokenByIndex",
      "outputs": [
        {
          "internalType": "uint256",
          "name": "",
          "type": "uint256"
        }
      ],
      "stateMutability": "view",
      "type": "function",
      "constant": true
    },
    {
      "inputs": [
        {
          "internalType": "address",
          "name": "owner",
          "type": "address"
        },
        {
          "internalType": "uint256",
          "name": "index",
          "type": "uint256"
        }
      ],
      "name": "tokenOfOwnerByIndex",
      "outputs": [
        {
          "internalType": "uint256",
          "name": "",
          "type": "uint256"
        }
      ],
      "stateMutability": "view",
      "type": "function",
      "constant": true
    },
    {
      "inputs": [],
      "name": "totalSupply",
      "outputs": [
        {
          "internalType": "uint256",
          "name": "",
          "type": "uint256"
        }
      ],
      "stateMutability": "view",
      "type": "function",
      "constant": true
    },
    {
      "inputs": [
        {
          "internalType": "address",
          "name": "from",
          "type": "address"
        },
        {
          "internalType": "address",
          "name": "to",
          "type": "address"
        },
        {
          "internalType": "uint256",
          "name": "tokenId",
          "type": "uint256"
        }
      ],
      "name": "transferFrom",
      "outputs": [],
      "stateMutability": "nonpayable",
      "type": "function"
    },
    {
      "inputs": [
        {
          "internalType": "address",
          "name": "newOwner",
          "type": "address"
        }
      ],
      "name": "transferOwnership",
      "outputs": [],
      "stateMutability": "nonpayable",
      "type": "function"
    },
    {
      "inputs": [
        {
          "internalType": "uint256",
          "name": "_mintPrice",
          "type": "uint256"
        }
      ],
      "name": "initialize",
      "outputs": [],
      "stateMutability": "nonpayable",
      "type": "function"
    },
    {
      "inputs": [
        {
          "internalType": "address",
          "name": "player",
          "type": "address"
        },
        {
          "internalType": "string",
          "name": "_tokenURI",
          "type": "string"
        }
      ],
      "name": "mint",
      "outputs": [
        {
          "internalType": "uint256",
          "name": "",
          "type": "uint256"
        }
      ],
      "stateMutability": "payable",
      "type": "function",
      "payable": true
    },
    {
      "inputs": [],
      "name": "withdrawAll",
      "outputs": [],
      "stateMutability": "nonpayable",
      "type": "function"
    },
    {
      "inputs": [
        {
          "internalType": "uint256",
          "name": "amount",
          "type": "uint256"
        }
      ],
      "name": "withdraw",
      "outputs": [],
      "stateMutability": "nonpayable",
      "type": "function"
    },
    {
      "inputs": [
        {
          "internalType": "uint256",
          "name": "_mintPrice",
          "type": "uint256"
        }
      ],
      "name": "setMintPrice",
      "outputs": [],
      "stateMutability": "nonpayable",
      "type": "function"
    },
    {
      "inputs": [],
      "name": "getMyBoxes",
      "outputs": [
        {
          "components": [
            {
              "internalType": "uint256",
              "name": "id",
              "type": "uint256"
            },
            {
              "internalType": "string",
              "name": "tokenURI",
              "type": "string"
            }
          ],
          "internalType": "struct Boxes.Box[]",
          "name": "",
          "type": "tuple[]"
        }
      ],
      "stateMutability": "view",
      "type": "function",
      "constant": true
    },
    {
      "inputs": [
        {
          "internalType": "uint256",
          "name": "tokenId",
          "type": "uint256"
        }
      ],
      "name": "burn",
      "outputs": [],
      "stateMutability": "nonpayable",
      "type": "function"
    },
    {
      "inputs": [
        {
          "internalType": "uint256",
          "name": "tokenId",
          "type": "uint256"
        }
      ],
      "name": "tokenURI",
      "outputs": [
        {
          "internalType": "string",
          "name": "",
          "type": "string"
        }
      ],
      "stateMutability": "view",
      "type": "function",
      "constant": true
    },
    {
      "inputs": [
        {
          "internalType": "bytes4",
          "name": "interfaceId",
          "type": "bytes4"
        }
      ],
      "name": "supportsInterface",
      "outputs": [
        {
          "internalType": "bool",
          "name": "",
          "type": "bool"
        }
      ],
      "stateMutability": "view",
      "type": "function",
      "constant": true
    }
  ],
  "bytecode": "0x608060405234801561001057600080fd5b50612528806100206000396000f3fe60806040526004361061019c5760003560e01c806370a08231116100ec578063b88d4fde1161008a578063e985e9c511610064578063e985e9c51461047a578063f2fde38b146104c3578063f4a0a528146104e3578063fe4b84df1461050357600080fd5b8063b88d4fde14610427578063c87b56dd14610447578063d0def5211461046757600080fd5b80638d0a9b51116100c65780638d0a9b51146103b25780638da5cb5b146103d457806395d89b41146103f2578063a22cb4651461040757600080fd5b806370a0823114610368578063715018a614610388578063853828b61461039d57600080fd5b80632e1a7d4d1161015957806342966c681161013357806342966c68146102f15780634f6ccce7146103115780636352211e146103315780636817c76c1461035157600080fd5b80632e1a7d4d146102915780632f745c59146102b157806342842e0e146102d157600080fd5b806301ffc9a7146101a157806306fdde03146101d6578063081812fc146101f8578063095ea7b31461023057806318160ddd1461025257806323b872dd14610271575b600080fd5b3480156101ad57600080fd5b506101c16101bc366004611ec4565b610523565b60405190151581526020015b60405180910390f35b3480156101e257600080fd5b506101eb610534565b6040516101cd9190611f39565b34801561020457600080fd5b50610218610213366004611f4c565b6105c6565b6040516001600160a01b0390911681526020016101cd565b34801561023c57600080fd5b5061025061024b366004611f81565b6105ed565b005b34801561025e57600080fd5b506099545b6040519081526020016101cd565b34801561027d57600080fd5b5061025061028c366004611fab565b610707565b34801561029d57600080fd5b506102506102ac366004611f4c565b610738565b3480156102bd57600080fd5b506102636102cc366004611f81565b610771565b3480156102dd57600080fd5b506102506102ec366004611fab565b610807565b3480156102fd57600080fd5b5061025061030c366004611f4c565b610822565b34801561031d57600080fd5b5061026361032c366004611f4c565b610836565b34801561033d57600080fd5b5061021861034c366004611f4c565b6108c9565b34801561035d57600080fd5b506102636101605481565b34801561037457600080fd5b50610263610383366004611fe7565b610929565b34801561039457600080fd5b506102506109af565b3480156103a957600080fd5b506102506109c3565b3480156103be57600080fd5b506103c76109f7565b6040516101cd9190612002565b3480156103e057600080fd5b5060fb546001600160a01b0316610218565b3480156103fe57600080fd5b506101eb610b7f565b34801561041357600080fd5b50610250610422366004612076565b610b8e565b34801561043357600080fd5b5061025061044236600461213e565b610b99565b34801561045357600080fd5b506101eb610462366004611f4c565b610bd1565b6102636104753660046121ba565b610bdc565b34801561048657600080fd5b506101c161049536600461221c565b6001600160a01b039182166000908152606a6020908152604080832093909416825291909152205460ff1690565b3480156104cf57600080fd5b506102506104de366004611fe7565b610d95565b3480156104ef57600080fd5b506102506104fe366004611f4c565b610e0b565b34801561050f57600080fd5b5061025061051e366004611f4c565b610e19565b600061052e82610f72565b92915050565b6060606580546105439061224f565b80601f016020809104026020016040519081016040528092919081815260200182805461056f9061224f565b80156105bc5780601f10610591576101008083540402835291602001916105bc565b820191906000526020600020905b81548152906001019060200180831161059f57829003601f168201915b5050505050905090565b60006105d182610f97565b506000908152606960205260409020546001600160a01b031690565b60006105f8826108c9565b9050806001600160a01b0316836001600160a01b03160361066a5760405162461bcd60e51b815260206004820152602160248201527f4552433732313a20617070726f76616c20746f2063757272656e74206f776e656044820152603960f91b60648201526084015b60405180910390fd5b336001600160a01b038216148061068657506106868133610495565b6106f85760405162461bcd60e51b815260206004820152603e60248201527f4552433732313a20617070726f76652063616c6c6572206973206e6f7420746f60448201527f6b656e206f776e6572206e6f7220617070726f76656420666f7220616c6c00006064820152608401610661565b6107028383610ff6565b505050565b6107113382611064565b61072d5760405162461bcd60e51b815260040161066190612283565b6107028383836110e3565b61074061128a565b604051339082156108fc029083906000818181858888f1935050505015801561076d573d6000803e3d6000fd5b5050565b600061077c83610929565b82106107de5760405162461bcd60e51b815260206004820152602b60248201527f455243373231456e756d657261626c653a206f776e657220696e646578206f7560448201526a74206f6620626f756e647360a81b6064820152608401610661565b506001600160a01b03919091166000908152609760209081526040808320938352929052205490565b61070283838360405180602001604052806000815250610b99565b61082a61128a565b610833816112e4565b50565b600061084160995490565b82106108a45760405162461bcd60e51b815260206004820152602c60248201527f455243373231456e756d657261626c653a20676c6f62616c20696e646578206f60448201526b7574206f6620626f756e647360a01b6064820152608401610661565b609982815481106108b7576108b76122d1565b90600052602060002001549050919050565b6000818152606760205260408120546001600160a01b03168061052e5760405162461bcd60e51b8152602060048201526018602482015277115490cdcc8c4e881a5b9d985b1a59081d1bdad95b88125160421b6044820152606401610661565b60006001600160a01b0382166109935760405162461bcd60e51b815260206004820152602960248201527f4552433732313a2061646472657373207a65726f206973206e6f7420612076616044820152683634b21037bbb732b960b91b6064820152608401610661565b506001600160a01b031660009081526068602052604090205490565b6109b761128a565b6109c160006112ed565b565b6109cb61128a565b60405133904780156108fc02916000818181858888f19350505050158015610833573d6000803e3d6000fd5b60606000610a0433610929565b67ffffffffffffffff811115610a1c57610a1c6120b2565b604051908082528060200260200182016040528015610a6257816020015b604080518082019091526000815260606020820152815260200190600190039081610a3a5790505b50905060005b8151811015610b79576000610a7d3383610771565b90506101618181548110610a9357610a936122d1565b906000526020600020906002020160405180604001604052908160008201548152602001600182018054610ac69061224f565b80601f0160208091040260200160405190810160405280929190818152602001828054610af29061224f565b8015610b3f5780601f10610b1457610100808354040283529160200191610b3f565b820191906000526020600020905b815481529060010190602001808311610b2257829003601f168201915b505050505081525050838381518110610b5a57610b5a6122d1565b6020026020010181905250508080610b71906122fd565b915050610a68565b50919050565b6060606680546105439061224f565b61076d33838361133f565b610ba33383611064565b610bbf5760405162461bcd60e51b815260040161066190612283565b610bcb8484848461140d565b50505050565b606061052e82611440565b6000600261012d5403610c315760405162461bcd60e51b815260206004820152601f60248201527f5265656e7472616e637947756172643a207265656e7472616e742063616c6c006044820152606401610661565b600261012d5561016054341015610c7f5760405162461bcd60e51b8152602060048201526012602482015271696e73756666696369656e742066756e647360701b6044820152606401610661565b6000610c8b61015f5490565b6040805180820190915281815260208082018681526101618054600181018255600091909152835160029091027fafbb1c043347995df017ce3291b765e028ad5f784d2aa00c3f5e073760a4de8b810191825591518051959650939485949193610d19937fafbb1c043347995df017ce3291b765e028ad5f784d2aa00c3f5e073760a4de8c01920190611ddf565b505050610d268583611548565b610d308285611696565b610d3f61015f80546001019055565b846001600160a01b031681604051610d579190612316565b604051908190038120907f61410d63b3982118fe5a0c8241be6c242cde4d7dbdfddfeacfae57dbfedbb30590600090a350600161012d559392505050565b610d9d61128a565b6001600160a01b038116610e025760405162461bcd60e51b815260206004820152602660248201527f4f776e61626c653a206e6577206f776e657220697320746865207a65726f206160448201526564647265737360d01b6064820152608401610661565b610833816112ed565b610e1361128a565b61016055565b600054610100900460ff1615808015610e395750600054600160ff909116105b80610e535750303b158015610e53575060005460ff166001145b610eb65760405162461bcd60e51b815260206004820152602e60248201527f496e697469616c697a61626c653a20636f6e747261637420697320616c72656160448201526d191e481a5b9a5d1a585b1a5e995960921b6064820152608401610661565b6000805460ff191660011790558015610ed9576000805461ff0019166101001790555b610f1b60405180604001604052806005815260200164426f78657360d81b815250604051806040016040528060038152602001620849eb60eb1b815250611730565b610f23611761565b610160829055801561076d576000805461ff0019169055604051600181527f7f26b83ff96e1f2b6a682f133852f6798a09c465da95921460cefb38474024989060200160405180910390a15050565b60006001600160e01b0319821663780e9d6360e01b148061052e575061052e82611791565b6000818152606760205260409020546001600160a01b03166108335760405162461bcd60e51b8152602060048201526018602482015277115490cdcc8c4e881a5b9d985b1a59081d1bdad95b88125160421b6044820152606401610661565b600081815260696020526040902080546001600160a01b0319166001600160a01b038416908117909155819061102b826108c9565b6001600160a01b03167f8c5be1e5ebec7d5bd14f71427d1e84f3dd0314c0f7b2291e5b200ac8c7c3b92560405160405180910390a45050565b600080611070836108c9565b9050806001600160a01b0316846001600160a01b031614806110b757506001600160a01b038082166000908152606a602090815260408083209388168352929052205460ff165b806110db5750836001600160a01b03166110d0846105c6565b6001600160a01b0316145b949350505050565b826001600160a01b03166110f6826108c9565b6001600160a01b03161461115a5760405162461bcd60e51b815260206004820152602560248201527f4552433732313a207472616e736665722066726f6d20696e636f72726563742060448201526437bbb732b960d91b6064820152608401610661565b6001600160a01b0382166111bc5760405162461bcd60e51b8152602060048201526024808201527f4552433732313a207472616e7366657220746f20746865207a65726f206164646044820152637265737360e01b6064820152608401610661565b6111c78383836117e1565b6111d2600082610ff6565b6001600160a01b03831660009081526068602052604081208054600192906111fb908490612349565b90915550506001600160a01b0382166000908152606860205260408120805460019290611229908490612360565b909155505060008181526067602052604080822080546001600160a01b0319166001600160a01b0386811691821790925591518493918716917fddf252ad1be2c89b69c2b068fc378daa952ba7f163c4a11628f55a4df523b3ef91a4505050565b60fb546001600160a01b031633146109c15760405162461bcd60e51b815260206004820181905260248201527f4f776e61626c653a2063616c6c6572206973206e6f7420746865206f776e65726044820152606401610661565b610833816117ec565b60fb80546001600160a01b038381166001600160a01b0319831681179093556040519116919082907f8be0079c531659141344cd1fd0a4f28419497f9722a3daafe3b4186f6b6457e090600090a35050565b816001600160a01b0316836001600160a01b0316036113a05760405162461bcd60e51b815260206004820152601960248201527f4552433732313a20617070726f766520746f2063616c6c6572000000000000006044820152606401610661565b6001600160a01b038381166000818152606a6020908152604080832094871680845294825291829020805460ff191686151590811790915591519182527f17307eab39ab6107e8899845ad3d59bd9653f200f220920489ca2b5937696c31910160405180910390a3505050565b6114188484846110e3565b6114248484848461182c565b610bcb5760405162461bcd60e51b815260040161066190612378565b606061144b82610f97565b600082815260c96020526040812080546114649061224f565b80601f01602080910402602001604051908101604052809291908181526020018280546114909061224f565b80156114dd5780601f106114b2576101008083540402835291602001916114dd565b820191906000526020600020905b8154815290600101906020018083116114c057829003601f168201915b5050505050905060006114fb60408051602081019091526000815290565b9050805160000361150d575092915050565b81511561153f5780826040516020016115279291906123ca565b60405160208183030381529060405292505050919050565b6110db8461192d565b6001600160a01b03821661159e5760405162461bcd60e51b815260206004820181905260248201527f4552433732313a206d696e7420746f20746865207a65726f20616464726573736044820152606401610661565b6000818152606760205260409020546001600160a01b0316156116035760405162461bcd60e51b815260206004820152601c60248201527f4552433732313a20746f6b656e20616c7265616479206d696e746564000000006044820152606401610661565b61160f600083836117e1565b6001600160a01b0382166000908152606860205260408120805460019290611638908490612360565b909155505060008181526067602052604080822080546001600160a01b0319166001600160a01b03861690811790915590518392907fddf252ad1be2c89b69c2b068fc378daa952ba7f163c4a11628f55a4df523b3ef908290a45050565b6000828152606760205260409020546001600160a01b03166117115760405162461bcd60e51b815260206004820152602e60248201527f45524337323155524953746f726167653a2055524920736574206f66206e6f6e60448201526d32bc34b9ba32b73a103a37b5b2b760911b6064820152608401610661565b600082815260c960209081526040909120825161070292840190611ddf565b600054610100900460ff166117575760405162461bcd60e51b8152600401610661906123f9565b61076d82826119a1565b600054610100900460ff166117885760405162461bcd60e51b8152600401610661906123f9565b6109c1336112ed565b60006001600160e01b031982166380ac58cd60e01b14806117c257506001600160e01b03198216635b5e139f60e01b145b8061052e57506301ffc9a760e01b6001600160e01b031983161461052e565b6107028383836119ef565b6117f581611aa7565b600081815260c960205260409020805461180e9061224f565b15905061083357600081815260c96020526040812061083391611e63565b60006001600160a01b0384163b1561192257604051630a85bd0160e11b81526001600160a01b0385169063150b7a0290611870903390899088908890600401612444565b6020604051808303816000875af19250505080156118ab575060408051601f3d908101601f191682019092526118a891810190612481565b60015b611908573d8080156118d9576040519150601f19603f3d011682016040523d82523d6000602084013e6118de565b606091505b5080516000036119005760405162461bcd60e51b815260040161066190612378565b805181602001fd5b6001600160e01b031916630a85bd0160e11b1490506110db565b506001949350505050565b606061193882610f97565b600061194f60408051602081019091526000815290565b9050600081511161196f576040518060200160405280600081525061199a565b8061197984611b4e565b60405160200161198a9291906123ca565b6040516020818303038152906040525b9392505050565b600054610100900460ff166119c85760405162461bcd60e51b8152600401610661906123f9565b81516119db906065906020850190611ddf565b508051610702906066906020840190611ddf565b6001600160a01b038316611a4a57611a4581609980546000838152609a60205260408120829055600182018355919091527f72a152ddfb8e864297c917af52ea6c1c68aead0fee1a62673fcc7e0c94979d000155565b611a6d565b816001600160a01b0316836001600160a01b031614611a6d57611a6d8382611c4f565b6001600160a01b038216611a845761070281611cec565b826001600160a01b0316826001600160a01b031614610702576107028282611d9b565b6000611ab2826108c9565b9050611ac0816000846117e1565b611acb600083610ff6565b6001600160a01b0381166000908152606860205260408120805460019290611af4908490612349565b909155505060008281526067602052604080822080546001600160a01b0319169055518391906001600160a01b038416907fddf252ad1be2c89b69c2b068fc378daa952ba7f163c4a11628f55a4df523b3ef908390a45050565b606081600003611b755750506040805180820190915260018152600360fc1b602082015290565b8160005b8115611b9f5780611b89816122fd565b9150611b989050600a836124b4565b9150611b79565b60008167ffffffffffffffff811115611bba57611bba6120b2565b6040519080825280601f01601f191660200182016040528015611be4576020820181803683370190505b5090505b84156110db57611bf9600183612349565b9150611c06600a866124c8565b611c11906030612360565b60f81b818381518110611c2657611c266122d1565b60200101906001600160f81b031916908160001a905350611c48600a866124b4565b9450611be8565b60006001611c5c84610929565b611c669190612349565b600083815260986020526040902054909150808214611cb9576001600160a01b03841660009081526097602090815260408083208584528252808320548484528184208190558352609890915290208190555b5060009182526098602090815260408084208490556001600160a01b039094168352609781528383209183525290812055565b609954600090611cfe90600190612349565b6000838152609a602052604081205460998054939450909284908110611d2657611d266122d1565b906000526020600020015490508060998381548110611d4757611d476122d1565b6000918252602080832090910192909255828152609a90915260408082208490558582528120556099805480611d7f57611d7f6124dc565b6001900381819060005260206000200160009055905550505050565b6000611da683610929565b6001600160a01b039093166000908152609760209081526040808320868452825280832085905593825260989052919091209190915550565b828054611deb9061224f565b90600052602060002090601f016020900481019282611e0d5760008555611e53565b82601f10611e2657805160ff1916838001178555611e53565b82800160010185558215611e53579182015b82811115611e53578251825591602001919060010190611e38565b50611e5f929150611e99565b5090565b508054611e6f9061224f565b6000825580601f10611e7f575050565b601f01602090049060005260206000209081019061083391905b5b80821115611e5f5760008155600101611e9a565b6001600160e01b03198116811461083357600080fd5b600060208284031215611ed657600080fd5b813561199a81611eae565b60005b83811015611efc578181015183820152602001611ee4565b83811115610bcb5750506000910152565b60008151808452611f25816020860160208601611ee1565b601f01601f19169290920160200192915050565b60208152600061199a6020830184611f0d565b600060208284031215611f5e57600080fd5b5035919050565b80356001600160a01b0381168114611f7c57600080fd5b919050565b60008060408385031215611f9457600080fd5b611f9d83611f65565b946020939093013593505050565b600080600060608486031215611fc057600080fd5b611fc984611f65565b9250611fd760208501611f65565b9150604084013590509250925092565b600060208284031215611ff957600080fd5b61199a82611f65565b60006020808301818452808551808352604092508286019150828160051b87010184880160005b8381101561206857888303603f1901855281518051845287015187840187905261205587850182611f0d565b9588019593505090860190600101612029565b509098975050505050505050565b6000806040838503121561208957600080fd5b61209283611f65565b9150602083013580151581146120a757600080fd5b809150509250929050565b634e487b7160e01b600052604160045260246000fd5b600067ffffffffffffffff808411156120e3576120e36120b2565b604051601f8501601f19908116603f0116810190828211818310171561210b5761210b6120b2565b8160405280935085815286868601111561212457600080fd5b858560208301376000602087830101525050509392505050565b6000806000806080858703121561215457600080fd5b61215d85611f65565b935061216b60208601611f65565b925060408501359150606085013567ffffffffffffffff81111561218e57600080fd5b8501601f8101871361219f57600080fd5b6121ae878235602084016120c8565b91505092959194509250565b600080604083850312156121cd57600080fd5b6121d683611f65565b9150602083013567ffffffffffffffff8111156121f257600080fd5b8301601f8101851361220357600080fd5b612212858235602084016120c8565b9150509250929050565b6000806040838503121561222f57600080fd5b61223883611f65565b915061224660208401611f65565b90509250929050565b600181811c9082168061226357607f821691505b602082108103610b7957634e487b7160e01b600052602260045260246000fd5b6020808252602e908201527f4552433732313a2063616c6c6572206973206e6f7420746f6b656e206f776e6560408201526d1c881b9bdc88185c1c1c9bdd995960921b606082015260800190565b634e487b7160e01b600052603260045260246000fd5b634e487b7160e01b600052601160045260246000fd5b60006001820161230f5761230f6122e7565b5060010190565b81518152600060208301518051612334816020860160208501611ee1565b601f01601f1916929092016020019392505050565b60008282101561235b5761235b6122e7565b500390565b60008219821115612373576123736122e7565b500190565b60208082526032908201527f4552433732313a207472616e7366657220746f206e6f6e20455243373231526560408201527131b2b4bb32b91034b6b83632b6b2b73a32b960711b606082015260800190565b600083516123dc818460208801611ee1565b8351908301906123f0818360208801611ee1565b01949350505050565b6020808252602b908201527f496e697469616c697a61626c653a20636f6e7472616374206973206e6f74206960408201526a6e697469616c697a696e6760a81b606082015260800190565b6001600160a01b038581168252841660208201526040810183905260806060820181905260009061247790830184611f0d565b9695505050505050565b60006020828403121561249357600080fd5b815161199a81611eae565b634e487b7160e01b600052601260045260246000fd5b6000826124c3576124c361249e565b500490565b6000826124d7576124d761249e565b500690565b634e487b7160e01b600052603160045260246000fdfea2646970667358221220234849ddef6f6a91e3bdfc0e7e8e361b5a5caba5bef78e5c31e60a82ca145af364736f6c634300080e0033",
  "immutableReferences": {},
  "source": "// SPDX-License-Identifier: MIT\npragma solidity >=0.4.22 <0.9.0;\n\nimport \"@openzeppelin/contracts-upgradeable/token/ERC721/extensions/ERC721EnumerableUpgradeable.sol\";\nimport \"@openzeppelin/contracts-upgradeable/token/ERC721/extensions/ERC721URIStorageUpgradeable.sol\";\nimport \"@openzeppelin/contracts-upgradeable/access/OwnableUpgradeable.sol\";\nimport \"@openzeppelin/contracts-upgradeable/utils/CountersUpgradeable.sol\";\nimport \"@openzeppelin/contracts-upgradeable/security/ReentrancyGuardUpgradeable.sol\";\n\ncontract Boxes is ERC721EnumerableUpgradeable, ERC721URIStorageUpgradeable, OwnableUpgradeable, ReentrancyGuardUpgradeable {\n    using CountersUpgradeable for CountersUpgradeable.Counter;\n\n    CountersUpgradeable.Counter private _tokenIds;\n\n    uint256 public mintPrice;\n\n    struct Box {\n        uint256 id;\n        string tokenURI;\n    }\n\n    Box[] private tokens;\n\n    event NewBox(Box indexed box, address indexed minter);\n\n    function initialize (uint256 _mintPrice) public initializer {\n        __ERC721_init(\"Boxes\", \"BOX\");\n        __Ownable_init_unchained();\n\n        mintPrice = _mintPrice;\n    }\n\n    function mint(address player, string memory _tokenURI) external payable nonReentrant returns (uint256) {\n        require(msg.value >= mintPrice, \"insufficient funds\");\n        uint256 newItemId = _tokenIds.current();\n        Box memory box = Box(newItemId, _tokenURI);\n        tokens.push(box);\n        _mint(player, newItemId);\n        _setTokenURI(newItemId, _tokenURI);\n\n        _tokenIds.increment();\n        emit NewBox(box, player);\n        return newItemId;\n    }\n\n    function withdrawAll() public onlyOwner {\n        payable(msg.sender).transfer(address(this).balance);\n    }\n\n    function withdraw(uint256 amount) public onlyOwner {\n        payable(msg.sender).transfer(amount);\n    }\n\n    function setMintPrice(uint256 _mintPrice) public onlyOwner {\n        mintPrice = _mintPrice;\n    }\n\n    function getMyBoxes() public view returns(Box[] memory) {\n        Box[] memory myBoxes = new Box[](balanceOf(msg.sender));\n        for(uint256 i = 0; i < myBoxes.length; i++) {\n            uint256 tokenId = tokenOfOwnerByIndex(msg.sender, i);\n            myBoxes[i] = tokens[tokenId];\n        }\n        return myBoxes;\n    }\n\n    function _beforeTokenTransfer(address from, address to, uint256 tokenId)\n        internal\n        override(ERC721Upgradeable, ERC721EnumerableUpgradeable)\n    {\n        super._beforeTokenTransfer(from, to, tokenId);\n    }\n\n    function burn(uint256 tokenId) public onlyOwner {\n        _burn(tokenId);\n    }\n\n    function _burn(uint256 tokenId) internal override(ERC721Upgradeable, ERC721URIStorageUpgradeable) {\n        super._burn(tokenId);\n    }\n\n    function tokenURI(uint256 tokenId)\n        public\n        view\n        override(ERC721Upgradeable, ERC721URIStorageUpgradeable)\n        returns (string memory)\n    {\n        return super.tokenURI(tokenId);\n    }\n\n    function supportsInterface(bytes4 interfaceId)\n        public\n        view\n        override(ERC721Upgradeable, ERC721EnumerableUpgradeable)\n        returns (bool)\n    {\n        return super.supportsInterface(interfaceId);\n    }\n\n}\n",
  "sourcePath": "/home/tetsu/src/bcg-sample/contracts/Boxes.sol",
  "compiler": {
    "name": "solc",
    "version": "0.8.14+commit.80d49f37.Emscripten.clang"
  },
  "schemaVersion": "3.4.7",
  "updatedAt": "2022-07-27T01:46:53.418Z",
  "networkType": "ethereum",
  "devdoc": {
    "kind": "dev",
    "methods": {
      "approve(address,uint256)": {
        "details": "See {IERC721-approve}."
      },
      "balanceOf(address)": {
        "details": "See {IERC721-balanceOf}."
      },
      "getApproved(uint256)": {
        "details": "See {IERC721-getApproved}."
      },
      "isApprovedForAll(address,address)": {
        "details": "See {IERC721-isApprovedForAll}."
      },
      "name()": {
        "details": "See {IERC721Metadata-name}."
      },
      "owner()": {
        "details": "Returns the address of the current owner."
      },
      "ownerOf(uint256)": {
        "details": "See {IERC721-ownerOf}."
      },
      "renounceOwnership()": {
        "details": "Leaves the contract without owner. It will not be possible to call `onlyOwner` functions anymore. Can only be called by the current owner. NOTE: Renouncing ownership will leave the contract without an owner, thereby removing any functionality that is only available to the owner."
      },
      "safeTransferFrom(address,address,uint256)": {
        "details": "See {IERC721-safeTransferFrom}."
      },
      "safeTransferFrom(address,address,uint256,bytes)": {
        "details": "See {IERC721-safeTransferFrom}."
      },
      "setApprovalForAll(address,bool)": {
        "details": "See {IERC721-setApprovalForAll}."
      },
      "symbol()": {
        "details": "See {IERC721Metadata-symbol}."
      },
      "tokenByIndex(uint256)": {
        "details": "See {IERC721Enumerable-tokenByIndex}."
      },
      "tokenOfOwnerByIndex(address,uint256)": {
        "details": "See {IERC721Enumerable-tokenOfOwnerByIndex}."
      },
      "totalSupply()": {
        "details": "See {IERC721Enumerable-totalSupply}."
      },
      "transferFrom(address,address,uint256)": {
        "details": "See {IERC721-transferFrom}."
      },
      "transferOwnership(address)": {
        "details": "Transfers ownership of the contract to a new account (`newOwner`). Can only be called by the current owner."
      }
    },
    "version": 1
  },
  "userdoc": {
    "kind": "user",
    "methods": {},
    "version": 1
  }
}