{
  "contractName": "Characters",
  "abi": [
    {
      "anonymous": false,
      "inputs": [
        {
          "indexed": true,
          "internalType": "address",
          "name": "owner",
          "type": "address"
        },
        {
          "indexed": true,
          "internalType": "address",
          "name": "approved",
          "type": "address"
        },
        {
          "indexed": true,
          "internalType": "uint256",
          "name": "tokenId",
          "type": "uint256"
        }
      ],
      "name": "Approval",
      "type": "event"
    },
    {
      "anonymous": false,
      "inputs": [
        {
          "indexed": true,
          "internalType": "address",
          "name": "owner",
          "type": "address"
        },
        {
          "indexed": true,
          "internalType": "address",
          "name": "operator",
          "type": "address"
        },
        {
          "indexed": false,
          "internalType": "bool",
          "name": "approved",
          "type": "bool"
        }
      ],
      "name": "ApprovalForAll",
      "type": "event"
    },
    {
      "anonymous": false,
      "inputs": [
        {
          "indexed": false,
          "internalType": "uint8",
          "name": "version",
          "type": "uint8"
        }
      ],
      "name": "Initialized",
      "type": "event"
    },
    {
      "anonymous": false,
      "inputs": [
        {
          "components": [
            {
              "internalType": "uint256",
              "name": "id",
              "type": "uint256"
            },
            {
              "internalType": "string",
              "name": "tokenURI",
              "type": "string"
            }
          ],
          "indexed": true,
          "internalType": "struct Characters.Character",
          "name": "character",
          "type": "tuple"
        },
        {
          "indexed": true,
          "internalType": "address",
          "name": "minter",
          "type": "address"
        }
      ],
      "name": "NewCharacter",
      "type": "event"
    },
    {
      "anonymous": false,
      "inputs": [
        {
          "indexed": true,
          "internalType": "address",
          "name": "previousOwner",
          "type": "address"
        },
        {
          "indexed": true,
          "internalType": "address",
          "name": "newOwner",
          "type": "address"
        }
      ],
      "name": "OwnershipTransferred",
      "type": "event"
    },
    {
      "anonymous": false,
      "inputs": [
        {
          "indexed": true,
          "internalType": "address",
          "name": "from",
          "type": "address"
        },
        {
          "indexed": true,
          "internalType": "address",
          "name": "to",
          "type": "address"
        },
        {
          "indexed": true,
          "internalType": "uint256",
          "name": "tokenId",
          "type": "uint256"
        }
      ],
      "name": "Transfer",
      "type": "event"
    },
    {
      "inputs": [
        {
          "internalType": "address",
          "name": "to",
          "type": "address"
        },
        {
          "internalType": "uint256",
          "name": "tokenId",
          "type": "uint256"
        }
      ],
      "name": "approve",
      "outputs": [],
      "stateMutability": "nonpayable",
      "type": "function"
    },
    {
      "inputs": [
        {
          "internalType": "address",
          "name": "owner",
          "type": "address"
        }
      ],
      "name": "balanceOf",
      "outputs": [
        {
          "internalType": "uint256",
          "name": "",
          "type": "uint256"
        }
      ],
      "stateMutability": "view",
      "type": "function",
      "constant": true
    },
    {
      "inputs": [
        {
          "internalType": "uint256",
          "name": "tokenId",
          "type": "uint256"
        }
      ],
      "name": "getApproved",
      "outputs": [
        {
          "internalType": "address",
          "name": "",
          "type": "address"
        }
      ],
      "stateMutability": "view",
      "type": "function",
      "constant": true
    },
    {
      "inputs": [
        {
          "internalType": "address",
          "name": "owner",
          "type": "address"
        },
        {
          "internalType": "address",
          "name": "operator",
          "type": "address"
        }
      ],
      "name": "isApprovedForAll",
      "outputs": [
        {
          "internalType": "bool",
          "name": "",
          "type": "bool"
        }
      ],
      "stateMutability": "view",
      "type": "function",
      "constant": true
    },
    {
      "inputs": [],
      "name": "mintPrice",
      "outputs": [
        {
          "internalType": "uint256",
          "name": "",
          "type": "uint256"
        }
      ],
      "stateMutability": "view",
      "type": "function",
      "constant": true
    },
    {
      "inputs": [],
      "name": "name",
      "outputs": [
        {
          "internalType": "string",
          "name": "",
          "type": "string"
        }
      ],
      "stateMutability": "view",
      "type": "function",
      "constant": true
    },
    {
      "inputs": [],
      "name": "owner",
      "outputs": [
        {
          "internalType": "address",
          "name": "",
          "type": "address"
        }
      ],
      "stateMutability": "view",
      "type": "function",
      "constant": true
    },
    {
      "inputs": [
        {
          "internalType": "uint256",
          "name": "tokenId",
          "type": "uint256"
        }
      ],
      "name": "ownerOf",
      "outputs": [
        {
          "internalType": "address",
          "name": "",
          "type": "address"
        }
      ],
      "stateMutability": "view",
      "type": "function",
      "constant": true
    },
    {
      "inputs": [],
      "name": "renounceOwnership",
      "outputs": [],
      "stateMutability": "nonpayable",
      "type": "function"
    },
    {
      "inputs": [
        {
          "internalType": "address",
          "name": "from",
          "type": "address"
        },
        {
          "internalType": "address",
          "name": "to",
          "type": "address"
        },
        {
          "internalType": "uint256",
          "name": "tokenId",
          "type": "uint256"
        }
      ],
      "name": "safeTransferFrom",
      "outputs": [],
      "stateMutability": "nonpayable",
      "type": "function"
    },
    {
      "inputs": [
        {
          "internalType": "address",
          "name": "from",
          "type": "address"
        },
        {
          "internalType": "address",
          "name": "to",
          "type": "address"
        },
        {
          "internalType": "uint256",
          "name": "tokenId",
          "type": "uint256"
        },
        {
          "internalType": "bytes",
          "name": "data",
          "type": "bytes"
        }
      ],
      "name": "safeTransferFrom",
      "outputs": [],
      "stateMutability": "nonpayable",
      "type": "function"
    },
    {
      "inputs": [
        {
          "internalType": "address",
          "name": "operator",
          "type": "address"
        },
        {
          "internalType": "bool",
          "name": "approved",
          "type": "bool"
        }
      ],
      "name": "setApprovalForAll",
      "outputs": [],
      "stateMutability": "nonpayable",
      "type": "function"
    },
    {
      "inputs": [],
      "name": "symbol",
      "outputs": [
        {
          "internalType": "string",
          "name": "",
          "type": "string"
        }
      ],
      "stateMutability": "view",
      "type": "function",
      "constant": true
    },
    {
      "inputs": [
        {
          "internalType": "uint256",
          "name": "index",
          "type": "uint256"
        }
      ],
      "name": "tokenByIndex",
      "outputs": [
        {
          "internalType": "uint256",
          "name": "",
          "type": "uint256"
        }
      ],
      "stateMutability": "view",
      "type": "function",
      "constant": true
    },
    {
      "inputs": [
        {
          "internalType": "address",
          "name": "owner",
          "type": "address"
        },
        {
          "internalType": "uint256",
          "name": "index",
          "type": "uint256"
        }
      ],
      "name": "tokenOfOwnerByIndex",
      "outputs": [
        {
          "internalType": "uint256",
          "name": "",
          "type": "uint256"
        }
      ],
      "stateMutability": "view",
      "type": "function",
      "constant": true
    },
    {
      "inputs": [],
      "name": "totalSupply",
      "outputs": [
        {
          "internalType": "uint256",
          "name": "",
          "type": "uint256"
        }
      ],
      "stateMutability": "view",
      "type": "function",
      "constant": true
    },
    {
      "inputs": [
        {
          "internalType": "address",
          "name": "from",
          "type": "address"
        },
        {
          "internalType": "address",
          "name": "to",
          "type": "address"
        },
        {
          "internalType": "uint256",
          "name": "tokenId",
          "type": "uint256"
        }
      ],
      "name": "transferFrom",
      "outputs": [],
      "stateMutability": "nonpayable",
      "type": "function"
    },
    {
      "inputs": [
        {
          "internalType": "address",
          "name": "newOwner",
          "type": "address"
        }
      ],
      "name": "transferOwnership",
      "outputs": [],
      "stateMutability": "nonpayable",
      "type": "function"
    },
    {
      "inputs": [
        {
          "internalType": "uint256",
          "name": "_mintPrice",
          "type": "uint256"
        }
      ],
      "name": "initialize",
      "outputs": [],
      "stateMutability": "nonpayable",
      "type": "function"
    },
    {
      "inputs": [
        {
          "internalType": "address",
          "name": "player",
          "type": "address"
        },
        {
          "internalType": "string",
          "name": "_tokenURI",
          "type": "string"
        }
      ],
      "name": "mint",
      "outputs": [
        {
          "internalType": "uint256",
          "name": "",
          "type": "uint256"
        }
      ],
      "stateMutability": "payable",
      "type": "function",
      "payable": true
    },
    {
      "inputs": [],
      "name": "withdrawAll",
      "outputs": [],
      "stateMutability": "nonpayable",
      "type": "function"
    },
    {
      "inputs": [
        {
          "internalType": "uint256",
          "name": "amount",
          "type": "uint256"
        }
      ],
      "name": "withdraw",
      "outputs": [],
      "stateMutability": "nonpayable",
      "type": "function"
    },
    {
      "inputs": [
        {
          "internalType": "uint256",
          "name": "_mintPrice",
          "type": "uint256"
        }
      ],
      "name": "setMintPrice",
      "outputs": [],
      "stateMutability": "nonpayable",
      "type": "function"
    },
    {
      "inputs": [],
      "name": "getMyCharacters",
      "outputs": [
        {
          "components": [
            {
              "internalType": "uint256",
              "name": "id",
              "type": "uint256"
            },
            {
              "internalType": "string",
              "name": "tokenURI",
              "type": "string"
            }
          ],
          "internalType": "struct Characters.Character[]",
          "name": "",
          "type": "tuple[]"
        }
      ],
      "stateMutability": "view",
      "type": "function",
      "constant": true
    },
    {
      "inputs": [
        {
          "internalType": "uint256",
          "name": "tokenId",
          "type": "uint256"
        }
      ],
      "name": "burn",
      "outputs": [],
      "stateMutability": "nonpayable",
      "type": "function"
    },
    {
      "inputs": [
        {
          "internalType": "uint256",
          "name": "tokenId",
          "type": "uint256"
        }
      ],
      "name": "tokenURI",
      "outputs": [
        {
          "internalType": "string",
          "name": "",
          "type": "string"
        }
      ],
      "stateMutability": "view",
      "type": "function",
      "constant": true
    },
    {
      "inputs": [
        {
          "internalType": "bytes4",
          "name": "interfaceId",
          "type": "bytes4"
        }
      ],
      "name": "supportsInterface",
      "outputs": [
        {
          "internalType": "bool",
          "name": "",
          "type": "bool"
        }
      ],
      "stateMutability": "view",
      "type": "function",
      "constant": true
    }
  ],
  "bytecode": "0x608060405234801561001057600080fd5b5061252f806100206000396000f3fe60806040526004361061019c5760003560e01c80636817c76c116100ec578063b88d4fde1161008a578063e985e9c511610064578063e985e9c51461047a578063f2fde38b146104c3578063f4a0a528146104e3578063fe4b84df1461050357600080fd5b8063b88d4fde14610427578063c87b56dd14610447578063d0def5211461046757600080fd5b8063853828b6116100c6578063853828b6146103bf5780638da5cb5b146103d457806395d89b41146103f2578063a22cb4651461040757600080fd5b80636817c76c1461037357806370a082311461038a578063715018a6146103aa57600080fd5b80632e1a7d4d1161015957806342842e0e1161013357806342842e0e146102f357806342966c68146103135780634f6ccce7146103335780636352211e1461035357600080fd5b80632e1a7d4d146102915780632f745c59146102b15780633c4739d3146102d157600080fd5b806301ffc9a7146101a157806306fdde03146101d6578063081812fc146101f8578063095ea7b31461023057806318160ddd1461025257806323b872dd14610271575b600080fd5b3480156101ad57600080fd5b506101c16101bc366004611ecb565b610523565b60405190151581526020015b60405180910390f35b3480156101e257600080fd5b506101eb610534565b6040516101cd9190611f40565b34801561020457600080fd5b50610218610213366004611f53565b6105c6565b6040516001600160a01b0390911681526020016101cd565b34801561023c57600080fd5b5061025061024b366004611f88565b6105ed565b005b34801561025e57600080fd5b506099545b6040519081526020016101cd565b34801561027d57600080fd5b5061025061028c366004611fb2565b610707565b34801561029d57600080fd5b506102506102ac366004611f53565b610738565b3480156102bd57600080fd5b506102636102cc366004611f88565b610771565b3480156102dd57600080fd5b506102e6610807565b6040516101cd9190611fee565b3480156102ff57600080fd5b5061025061030e366004611fb2565b61098f565b34801561031f57600080fd5b5061025061032e366004611f53565b6109aa565b34801561033f57600080fd5b5061026361034e366004611f53565b6109be565b34801561035f57600080fd5b5061021861036e366004611f53565b610a51565b34801561037f57600080fd5b506102636101605481565b34801561039657600080fd5b506102636103a5366004612062565b610ab1565b3480156103b657600080fd5b50610250610b37565b3480156103cb57600080fd5b50610250610b4b565b3480156103e057600080fd5b5060fb546001600160a01b0316610218565b3480156103fe57600080fd5b506101eb610b7f565b34801561041357600080fd5b5061025061042236600461207d565b610b8e565b34801561043357600080fd5b50610250610442366004612145565b610b99565b34801561045357600080fd5b506101eb610462366004611f53565b610bd1565b6102636104753660046121c1565b610bdc565b34801561048657600080fd5b506101c1610495366004612223565b6001600160a01b039182166000908152606a6020908152604080832093909416825291909152205460ff1690565b3480156104cf57600080fd5b506102506104de366004612062565b610d95565b3480156104ef57600080fd5b506102506104fe366004611f53565b610e0b565b34801561050f57600080fd5b5061025061051e366004611f53565b610e19565b600061052e82610f79565b92915050565b60606065805461054390612256565b80601f016020809104026020016040519081016040528092919081815260200182805461056f90612256565b80156105bc5780601f10610591576101008083540402835291602001916105bc565b820191906000526020600020905b81548152906001019060200180831161059f57829003601f168201915b5050505050905090565b60006105d182610f9e565b506000908152606960205260409020546001600160a01b031690565b60006105f882610a51565b9050806001600160a01b0316836001600160a01b03160361066a5760405162461bcd60e51b815260206004820152602160248201527f4552433732313a20617070726f76616c20746f2063757272656e74206f776e656044820152603960f91b60648201526084015b60405180910390fd5b336001600160a01b038216148061068657506106868133610495565b6106f85760405162461bcd60e51b815260206004820152603e60248201527f4552433732313a20617070726f76652063616c6c6572206973206e6f7420746f60448201527f6b656e206f776e6572206e6f7220617070726f76656420666f7220616c6c00006064820152608401610661565b6107028383610ffd565b505050565b610711338261106b565b61072d5760405162461bcd60e51b81526004016106619061228a565b6107028383836110ea565b610740611291565b604051339082156108fc029083906000818181858888f1935050505015801561076d573d6000803e3d6000fd5b5050565b600061077c83610ab1565b82106107de5760405162461bcd60e51b815260206004820152602b60248201527f455243373231456e756d657261626c653a206f776e657220696e646578206f7560448201526a74206f6620626f756e647360a81b6064820152608401610661565b506001600160a01b03919091166000908152609760209081526040808320938352929052205490565b6060600061081433610ab1565b67ffffffffffffffff81111561082c5761082c6120b9565b60405190808252806020026020018201604052801561087257816020015b60408051808201909152600081526060602082015281526020019060019003908161084a5790505b50905060005b815181101561098957600061088d3383610771565b905061016181815481106108a3576108a36122d8565b9060005260206000209060020201604051806040016040529081600082015481526020016001820180546108d690612256565b80601f016020809104026020016040519081016040528092919081815260200182805461090290612256565b801561094f5780601f106109245761010080835404028352916020019161094f565b820191906000526020600020905b81548152906001019060200180831161093257829003601f168201915b50505050508152505083838151811061096a5761096a6122d8565b602002602001018190525050808061098190612304565b915050610878565b50919050565b61070283838360405180602001604052806000815250610b99565b6109b2611291565b6109bb816112eb565b50565b60006109c960995490565b8210610a2c5760405162461bcd60e51b815260206004820152602c60248201527f455243373231456e756d657261626c653a20676c6f62616c20696e646578206f60448201526b7574206f6620626f756e647360a01b6064820152608401610661565b60998281548110610a3f57610a3f6122d8565b90600052602060002001549050919050565b6000818152606760205260408120546001600160a01b03168061052e5760405162461bcd60e51b8152602060048201526018602482015277115490cdcc8c4e881a5b9d985b1a59081d1bdad95b88125160421b6044820152606401610661565b60006001600160a01b038216610b1b5760405162461bcd60e51b815260206004820152602960248201527f4552433732313a2061646472657373207a65726f206973206e6f7420612076616044820152683634b21037bbb732b960b91b6064820152608401610661565b506001600160a01b031660009081526068602052604090205490565b610b3f611291565b610b4960006112f4565b565b610b53611291565b60405133904780156108fc02916000818181858888f193505050501580156109bb573d6000803e3d6000fd5b60606066805461054390612256565b61076d338383611346565b610ba3338361106b565b610bbf5760405162461bcd60e51b81526004016106619061228a565b610bcb84848484611414565b50505050565b606061052e82611447565b6000600261012d5403610c315760405162461bcd60e51b815260206004820152601f60248201527f5265656e7472616e637947756172643a207265656e7472616e742063616c6c006044820152606401610661565b600261012d5561016054341015610c7f5760405162461bcd60e51b8152602060048201526012602482015271696e73756666696369656e742066756e647360701b6044820152606401610661565b6000610c8b61015f5490565b6040805180820190915281815260208082018681526101618054600181018255600091909152835160029091027fafbb1c043347995df017ce3291b765e028ad5f784d2aa00c3f5e073760a4de8b810191825591518051959650939485949193610d19937fafbb1c043347995df017ce3291b765e028ad5f784d2aa00c3f5e073760a4de8c01920190611de6565b505050610d26858361154f565b610d30828561169d565b610d3f61015f80546001019055565b846001600160a01b031681604051610d57919061231d565b604051908190038120907f39c3e97c78f78ec394df1aefd5dca27df68fce4f2d60cad1f0e50d602c6f4a5b90600090a350600161012d559392505050565b610d9d611291565b6001600160a01b038116610e025760405162461bcd60e51b815260206004820152602660248201527f4f776e61626c653a206e6577206f776e657220697320746865207a65726f206160448201526564647265737360d01b6064820152608401610661565b6109bb816112f4565b610e13611291565b61016055565b600054610100900460ff1615808015610e395750600054600160ff909116105b80610e535750303b158015610e53575060005460ff166001145b610eb65760405162461bcd60e51b815260206004820152602e60248201527f496e697469616c697a61626c653a20636f6e747261637420697320616c72656160448201526d191e481a5b9a5d1a585b1a5e995960921b6064820152608401610661565b6000805460ff191660011790558015610ed9576000805461ff0019166101001790555b610f226040518060400160405280600a8152602001694368617261637465727360b01b81525060405180604001604052806005815260200164434841524160d81b815250611737565b610f2a611768565b610160829055801561076d576000805461ff0019169055604051600181527f7f26b83ff96e1f2b6a682f133852f6798a09c465da95921460cefb38474024989060200160405180910390a15050565b60006001600160e01b0319821663780e9d6360e01b148061052e575061052e82611798565b6000818152606760205260409020546001600160a01b03166109bb5760405162461bcd60e51b8152602060048201526018602482015277115490cdcc8c4e881a5b9d985b1a59081d1bdad95b88125160421b6044820152606401610661565b600081815260696020526040902080546001600160a01b0319166001600160a01b038416908117909155819061103282610a51565b6001600160a01b03167f8c5be1e5ebec7d5bd14f71427d1e84f3dd0314c0f7b2291e5b200ac8c7c3b92560405160405180910390a45050565b60008061107783610a51565b9050806001600160a01b0316846001600160a01b031614806110be57506001600160a01b038082166000908152606a602090815260408083209388168352929052205460ff165b806110e25750836001600160a01b03166110d7846105c6565b6001600160a01b0316145b949350505050565b826001600160a01b03166110fd82610a51565b6001600160a01b0316146111615760405162461bcd60e51b815260206004820152602560248201527f4552433732313a207472616e736665722066726f6d20696e636f72726563742060448201526437bbb732b960d91b6064820152608401610661565b6001600160a01b0382166111c35760405162461bcd60e51b8152602060048201526024808201527f4552433732313a207472616e7366657220746f20746865207a65726f206164646044820152637265737360e01b6064820152608401610661565b6111ce8383836117e8565b6111d9600082610ffd565b6001600160a01b0383166000908152606860205260408120805460019290611202908490612350565b90915550506001600160a01b0382166000908152606860205260408120805460019290611230908490612367565b909155505060008181526067602052604080822080546001600160a01b0319166001600160a01b0386811691821790925591518493918716917fddf252ad1be2c89b69c2b068fc378daa952ba7f163c4a11628f55a4df523b3ef91a4505050565b60fb546001600160a01b03163314610b495760405162461bcd60e51b815260206004820181905260248201527f4f776e61626c653a2063616c6c6572206973206e6f7420746865206f776e65726044820152606401610661565b6109bb816117f3565b60fb80546001600160a01b038381166001600160a01b0319831681179093556040519116919082907f8be0079c531659141344cd1fd0a4f28419497f9722a3daafe3b4186f6b6457e090600090a35050565b816001600160a01b0316836001600160a01b0316036113a75760405162461bcd60e51b815260206004820152601960248201527f4552433732313a20617070726f766520746f2063616c6c6572000000000000006044820152606401610661565b6001600160a01b038381166000818152606a6020908152604080832094871680845294825291829020805460ff191686151590811790915591519182527f17307eab39ab6107e8899845ad3d59bd9653f200f220920489ca2b5937696c31910160405180910390a3505050565b61141f8484846110ea565b61142b84848484611833565b610bcb5760405162461bcd60e51b81526004016106619061237f565b606061145282610f9e565b600082815260c960205260408120805461146b90612256565b80601f016020809104026020016040519081016040528092919081815260200182805461149790612256565b80156114e45780601f106114b9576101008083540402835291602001916114e4565b820191906000526020600020905b8154815290600101906020018083116114c757829003601f168201915b50505050509050600061150260408051602081019091526000815290565b90508051600003611514575092915050565b81511561154657808260405160200161152e9291906123d1565b60405160208183030381529060405292505050919050565b6110e284611934565b6001600160a01b0382166115a55760405162461bcd60e51b815260206004820181905260248201527f4552433732313a206d696e7420746f20746865207a65726f20616464726573736044820152606401610661565b6000818152606760205260409020546001600160a01b03161561160a5760405162461bcd60e51b815260206004820152601c60248201527f4552433732313a20746f6b656e20616c7265616479206d696e746564000000006044820152606401610661565b611616600083836117e8565b6001600160a01b038216600090815260686020526040812080546001929061163f908490612367565b909155505060008181526067602052604080822080546001600160a01b0319166001600160a01b03861690811790915590518392907fddf252ad1be2c89b69c2b068fc378daa952ba7f163c4a11628f55a4df523b3ef908290a45050565b6000828152606760205260409020546001600160a01b03166117185760405162461bcd60e51b815260206004820152602e60248201527f45524337323155524953746f726167653a2055524920736574206f66206e6f6e60448201526d32bc34b9ba32b73a103a37b5b2b760911b6064820152608401610661565b600082815260c960209081526040909120825161070292840190611de6565b600054610100900460ff1661175e5760405162461bcd60e51b815260040161066190612400565b61076d82826119a8565b600054610100900460ff1661178f5760405162461bcd60e51b815260040161066190612400565b610b49336112f4565b60006001600160e01b031982166380ac58cd60e01b14806117c957506001600160e01b03198216635b5e139f60e01b145b8061052e57506301ffc9a760e01b6001600160e01b031983161461052e565b6107028383836119f6565b6117fc81611aae565b600081815260c960205260409020805461181590612256565b1590506109bb57600081815260c9602052604081206109bb91611e6a565b60006001600160a01b0384163b1561192957604051630a85bd0160e11b81526001600160a01b0385169063150b7a029061187790339089908890889060040161244b565b6020604051808303816000875af19250505080156118b2575060408051601f3d908101601f191682019092526118af91810190612488565b60015b61190f573d8080156118e0576040519150601f19603f3d011682016040523d82523d6000602084013e6118e5565b606091505b5080516000036119075760405162461bcd60e51b81526004016106619061237f565b805181602001fd5b6001600160e01b031916630a85bd0160e11b1490506110e2565b506001949350505050565b606061193f82610f9e565b600061195660408051602081019091526000815290565b9050600081511161197657604051806020016040528060008152506119a1565b8061198084611b55565b6040516020016119919291906123d1565b6040516020818303038152906040525b9392505050565b600054610100900460ff166119cf5760405162461bcd60e51b815260040161066190612400565b81516119e2906065906020850190611de6565b508051610702906066906020840190611de6565b6001600160a01b038316611a5157611a4c81609980546000838152609a60205260408120829055600182018355919091527f72a152ddfb8e864297c917af52ea6c1c68aead0fee1a62673fcc7e0c94979d000155565b611a74565b816001600160a01b0316836001600160a01b031614611a7457611a748382611c56565b6001600160a01b038216611a8b5761070281611cf3565b826001600160a01b0316826001600160a01b031614610702576107028282611da2565b6000611ab982610a51565b9050611ac7816000846117e8565b611ad2600083610ffd565b6001600160a01b0381166000908152606860205260408120805460019290611afb908490612350565b909155505060008281526067602052604080822080546001600160a01b0319169055518391906001600160a01b038416907fddf252ad1be2c89b69c2b068fc378daa952ba7f163c4a11628f55a4df523b3ef908390a45050565b606081600003611b7c5750506040805180820190915260018152600360fc1b602082015290565b8160005b8115611ba65780611b9081612304565b9150611b9f9050600a836124bb565b9150611b80565b60008167ffffffffffffffff811115611bc157611bc16120b9565b6040519080825280601f01601f191660200182016040528015611beb576020820181803683370190505b5090505b84156110e257611c00600183612350565b9150611c0d600a866124cf565b611c18906030612367565b60f81b818381518110611c2d57611c2d6122d8565b60200101906001600160f81b031916908160001a905350611c4f600a866124bb565b9450611bef565b60006001611c6384610ab1565b611c6d9190612350565b600083815260986020526040902054909150808214611cc0576001600160a01b03841660009081526097602090815260408083208584528252808320548484528184208190558352609890915290208190555b5060009182526098602090815260408084208490556001600160a01b039094168352609781528383209183525290812055565b609954600090611d0590600190612350565b6000838152609a602052604081205460998054939450909284908110611d2d57611d2d6122d8565b906000526020600020015490508060998381548110611d4e57611d4e6122d8565b6000918252602080832090910192909255828152609a90915260408082208490558582528120556099805480611d8657611d866124e3565b6001900381819060005260206000200160009055905550505050565b6000611dad83610ab1565b6001600160a01b039093166000908152609760209081526040808320868452825280832085905593825260989052919091209190915550565b828054611df290612256565b90600052602060002090601f016020900481019282611e145760008555611e5a565b82601f10611e2d57805160ff1916838001178555611e5a565b82800160010185558215611e5a579182015b82811115611e5a578251825591602001919060010190611e3f565b50611e66929150611ea0565b5090565b508054611e7690612256565b6000825580601f10611e86575050565b601f0160209004906000526020600020908101906109bb91905b5b80821115611e665760008155600101611ea1565b6001600160e01b0319811681146109bb57600080fd5b600060208284031215611edd57600080fd5b81356119a181611eb5565b60005b83811015611f03578181015183820152602001611eeb565b83811115610bcb5750506000910152565b60008151808452611f2c816020860160208601611ee8565b601f01601f19169290920160200192915050565b6020815260006119a16020830184611f14565b600060208284031215611f6557600080fd5b5035919050565b80356001600160a01b0381168114611f8357600080fd5b919050565b60008060408385031215611f9b57600080fd5b611fa483611f6c565b946020939093013593505050565b600080600060608486031215611fc757600080fd5b611fd084611f6c565b9250611fde60208501611f6c565b9150604084013590509250925092565b60006020808301818452808551808352604092508286019150828160051b87010184880160005b8381101561205457888303603f1901855281518051845287015187840187905261204187850182611f14565b9588019593505090860190600101612015565b509098975050505050505050565b60006020828403121561207457600080fd5b6119a182611f6c565b6000806040838503121561209057600080fd5b61209983611f6c565b9150602083013580151581146120ae57600080fd5b809150509250929050565b634e487b7160e01b600052604160045260246000fd5b600067ffffffffffffffff808411156120ea576120ea6120b9565b604051601f8501601f19908116603f01168101908282118183101715612112576121126120b9565b8160405280935085815286868601111561212b57600080fd5b858560208301376000602087830101525050509392505050565b6000806000806080858703121561215b57600080fd5b61216485611f6c565b935061217260208601611f6c565b925060408501359150606085013567ffffffffffffffff81111561219557600080fd5b8501601f810187136121a657600080fd5b6121b5878235602084016120cf565b91505092959194509250565b600080604083850312156121d457600080fd5b6121dd83611f6c565b9150602083013567ffffffffffffffff8111156121f957600080fd5b8301601f8101851361220a57600080fd5b612219858235602084016120cf565b9150509250929050565b6000806040838503121561223657600080fd5b61223f83611f6c565b915061224d60208401611f6c565b90509250929050565b600181811c9082168061226a57607f821691505b60208210810361098957634e487b7160e01b600052602260045260246000fd5b6020808252602e908201527f4552433732313a2063616c6c6572206973206e6f7420746f6b656e206f776e6560408201526d1c881b9bdc88185c1c1c9bdd995960921b606082015260800190565b634e487b7160e01b600052603260045260246000fd5b634e487b7160e01b600052601160045260246000fd5b600060018201612316576123166122ee565b5060010190565b8151815260006020830151805161233b816020860160208501611ee8565b601f01601f1916929092016020019392505050565b600082821015612362576123626122ee565b500390565b6000821982111561237a5761237a6122ee565b500190565b60208082526032908201527f4552433732313a207472616e7366657220746f206e6f6e20455243373231526560408201527131b2b4bb32b91034b6b83632b6b2b73a32b960711b606082015260800190565b600083516123e3818460208801611ee8565b8351908301906123f7818360208801611ee8565b01949350505050565b6020808252602b908201527f496e697469616c697a61626c653a20636f6e7472616374206973206e6f74206960408201526a6e697469616c697a696e6760a81b606082015260800190565b6001600160a01b038581168252841660208201526040810183905260806060820181905260009061247e90830184611f14565b9695505050505050565b60006020828403121561249a57600080fd5b81516119a181611eb5565b634e487b7160e01b600052601260045260246000fd5b6000826124ca576124ca6124a5565b500490565b6000826124de576124de6124a5565b500690565b634e487b7160e01b600052603160045260246000fdfea2646970667358221220d69b1036e1937b7b56197b9c3c9cad9fab5cd97877b22fea93bc86b8a79c8d1664736f6c634300080e0033",
  "immutableReferences": {},
  "source": "// SPDX-License-Identifier: MIT\npragma solidity >=0.4.22 <0.9.0;\n\nimport \"@openzeppelin/contracts-upgradeable/token/ERC721/extensions/ERC721EnumerableUpgradeable.sol\";\nimport \"@openzeppelin/contracts-upgradeable/token/ERC721/extensions/ERC721URIStorageUpgradeable.sol\";\nimport \"@openzeppelin/contracts-upgradeable/access/OwnableUpgradeable.sol\";\nimport \"@openzeppelin/contracts-upgradeable/utils/CountersUpgradeable.sol\";\nimport \"@openzeppelin/contracts-upgradeable/security/ReentrancyGuardUpgradeable.sol\";\n\ncontract Characters is ERC721EnumerableUpgradeable, ERC721URIStorageUpgradeable, OwnableUpgradeable, ReentrancyGuardUpgradeable {\n    using CountersUpgradeable for CountersUpgradeable.Counter;\n\n    CountersUpgradeable.Counter private _tokenIds;\n\n    uint256 public mintPrice;\n\n    struct Character {\n        uint256 id;\n        string tokenURI;\n    }\n\n    Character[] private tokens;\n\n    event NewCharacter(Character indexed character, address indexed minter);\n\n    function initialize (uint256 _mintPrice) public initializer {\n        __ERC721_init(\"Characters\", \"CHARA\");\n        __Ownable_init_unchained();\n\n        mintPrice = _mintPrice;\n    }\n\n    function mint(address player, string memory _tokenURI) external payable nonReentrant returns (uint256) {\n        require(msg.value >= mintPrice, \"insufficient funds\");\n        uint256 newItemId = _tokenIds.current();\n        Character memory character = Character(newItemId, _tokenURI);\n        tokens.push(character);\n        _mint(player, newItemId);\n        _setTokenURI(newItemId, _tokenURI);\n\n        _tokenIds.increment();\n        emit NewCharacter(character, player);\n        return newItemId;\n    }\n\n    function withdrawAll() public onlyOwner {\n        payable(msg.sender).transfer(address(this).balance);\n    }\n\n    function withdraw(uint256 amount) public onlyOwner {\n        payable(msg.sender).transfer(amount);\n    }\n\n    function setMintPrice(uint256 _mintPrice) public onlyOwner {\n        mintPrice = _mintPrice;\n    }\n\n    function getMyCharacters() public view returns(Character[] memory) {\n        Character[] memory myCharacters = new Character[](balanceOf(msg.sender));\n        for(uint256 i = 0; i < myCharacters.length; i++) {\n            uint256 tokenId = tokenOfOwnerByIndex(msg.sender, i);\n            myCharacters[i] = tokens[tokenId];\n        }\n        return myCharacters;\n    }\n\n    function _beforeTokenTransfer(address from, address to, uint256 tokenId)\n        internal\n        override(ERC721Upgradeable, ERC721EnumerableUpgradeable)\n    {\n        super._beforeTokenTransfer(from, to, tokenId);\n    }\n\n    function burn(uint256 tokenId) public onlyOwner {\n        _burn(tokenId);\n    }\n\n    function _burn(uint256 tokenId) internal override(ERC721Upgradeable, ERC721URIStorageUpgradeable) {\n        super._burn(tokenId);\n    }\n\n    function tokenURI(uint256 tokenId)\n        public\n        view\n        override(ERC721Upgradeable, ERC721URIStorageUpgradeable)\n        returns (string memory)\n    {\n        return super.tokenURI(tokenId);\n    }\n\n    function supportsInterface(bytes4 interfaceId)\n        public\n        view\n        override(ERC721Upgradeable, ERC721EnumerableUpgradeable)\n        returns (bool)\n    {\n        return super.supportsInterface(interfaceId);\n    }\n\n}\n",
  "sourcePath": "/home/tetsu/src/bcg-sample/contracts/Characters.sol",
  "compiler": {
    "name": "solc",
    "version": "0.8.14+commit.80d49f37.Emscripten.clang"
  },
  "schemaVersion": "3.4.7",
  "updatedAt": "2022-07-27T01:46:33.112Z",
  "networkType": "ethereum",
  "devdoc": {
    "kind": "dev",
    "methods": {
      "approve(address,uint256)": {
        "details": "See {IERC721-approve}."
      },
      "balanceOf(address)": {
        "details": "See {IERC721-balanceOf}."
      },
      "getApproved(uint256)": {
        "details": "See {IERC721-getApproved}."
      },
      "isApprovedForAll(address,address)": {
        "details": "See {IERC721-isApprovedForAll}."
      },
      "name()": {
        "details": "See {IERC721Metadata-name}."
      },
      "owner()": {
        "details": "Returns the address of the current owner."
      },
      "ownerOf(uint256)": {
        "details": "See {IERC721-ownerOf}."
      },
      "renounceOwnership()": {
        "details": "Leaves the contract without owner. It will not be possible to call `onlyOwner` functions anymore. Can only be called by the current owner. NOTE: Renouncing ownership will leave the contract without an owner, thereby removing any functionality that is only available to the owner."
      },
      "safeTransferFrom(address,address,uint256)": {
        "details": "See {IERC721-safeTransferFrom}."
      },
      "safeTransferFrom(address,address,uint256,bytes)": {
        "details": "See {IERC721-safeTransferFrom}."
      },
      "setApprovalForAll(address,bool)": {
        "details": "See {IERC721-setApprovalForAll}."
      },
      "symbol()": {
        "details": "See {IERC721Metadata-symbol}."
      },
      "tokenByIndex(uint256)": {
        "details": "See {IERC721Enumerable-tokenByIndex}."
      },
      "tokenOfOwnerByIndex(address,uint256)": {
        "details": "See {IERC721Enumerable-tokenOfOwnerByIndex}."
      },
      "totalSupply()": {
        "details": "See {IERC721Enumerable-totalSupply}."
      },
      "transferFrom(address,address,uint256)": {
        "details": "See {IERC721-transferFrom}."
      },
      "transferOwnership(address)": {
        "details": "Transfers ownership of the contract to a new account (`newOwner`). Can only be called by the current owner."
      }
    },
    "version": 1
  },
  "userdoc": {
    "kind": "user",
    "methods": {},
    "version": 1
  }
}